:1000000083177C3084007E300A128A110D200A1278
:100010008A1183010A128A11152864008001840A5A
:1000200004060319003404060E2803108316031374
:1000300000300318013086000310831203130030D0
:1000400003180130860003108316031300300318D1
:1000500001308800031083120313003003180130AD
:1000600088000A128A115F270A128A118312031369
:1000700008148312031308183E283F284B288030A9
:100080000A128A113E270A128A1101300A128A11B5
:0E0090007E270A128A1139280A128A110028C6
:100E0000FE00FE1F082F83137E18831700080800BA
:100E10000408FE0007308A007E088207003442344E
:100E2000413455344D3441342034523441344E34FD
:100E30004A344934543448340034F200720883127E
:100E400003138600081788170030F3000030F40001
:100E5000292F0130F3070318F40A0030F40774084F
:100E6000803AF500F5307502031D382F30307302DB
:100E7000031C3B2F3C2F292F88130800F00070081B
:100E8000831203138600081388170030F100003026
:100E9000F2004A2F0130F1070318F20A0030F2077E
:100EA0007208803AF300F5307302031D592F303079
:100EB0007102031C5C2F5D2F4A2F88130800383005
:100EC0000A128A113E270A128A110C300A128A115C
:100ED0003E270A128A1106300A128A113E270A1288
:100EE0008A1101300A128A113E270A128A118030B3
:100EF0000A128A113E270A128A110800F0008F2F69
:100F000070080A128A1109270A128A110A128A1114
:100F10001D270A128A110130F1007108F0077008CC
:100F20000A128A1109270A128A110038031D992F03
:060F30009A2F802F08003B
:02400E00723D01
:00000001FF
