:100000000A128A1103280310831603130030031801
:1000100001308600031083120313003003180130EF
:1000200086008312031306170A128A11DE270A12AA
:100030008A118312031306130A128A11DE270A1289
:0A0040008A1111280A128A11002803
:100FBC000030F0000030F100E32F4130F300EE3050
:100FCC00F200F20BE72FF30BE72F64000130F00770
:100FDC000318F10A0030F1077108803AF2008030F2
:100FEC007202031DFB2F32307002031CFE2FFF2FE9
:040FFC00E32F0800D7
:02400E00723D01
:00000001FF
