:100000000A128A1103280310831603130030031801
:100010000130860003100030031801308700031000
:10002000831203130030031801308600103087005C
:10003000071A1B281C282D288312031306160A12E0
:100040008A11DE270A128A118312031306120A127A
:100050008A11DE270A128A111C280A128A11002826
:100FBC000030F0000030F100E32F4130F300EE3050
:100FCC00F200F20BE72FF30BE72F64000130F00770
:100FDC000318F10A0030F1077108803AF2008030F2
:100FEC007202031DFB2F32307002031CFE2FFF2FE9
:040FFC00E32F0800D7
:02400E00723D01
:00000001FF
