:100000000A128A1103280310831603130030031801
:100010000130860003100030031801308700031000
:1000200083120313003003180130860003100030E0
:10003000031801308700071E1E281F284C28831232
:10004000031306160A128A11DE270A128A110030DB
:10005000F0000030F1002C28831203130608F20090
:100060000310720C86000A128A11DE270A128A1106
:100070000130F0070318F10A0030F1077108803AE7
:10008000F20080307202031D472808307002031C02
:0E0090004A284B282C281F280A128A11002803
:100FBC000030F3000030F400E32F4130F600EE3047
:100FCC00F500F50BE72FF60BE72F64000130F30764
:100FDC000318F40A0030F4077408803AF5008030E6
:100FEC007502031DFB2F28307302031CFE2FFF2FED
:040FFC00E32F0800D7
:02400E00723D01
:00000001FF
