:100000000A128A1103280310831603130030031801
:1000100001308600031083120313003003180130EF
:100020008600031083160313003003180130880084
:1000300003108312031300300318013088000A12E2
:100040008A11E8250A128A11E73083120313A000EF
:100050000330A10001300A128A11EC270A128A111A
:1000600083120313081C3528362871282108A301A0
:10007000A3072008A201A207A31F3F284028412868
:10008000712880300A128A11EC270A128A11013075
:100090000A128A11C9270A128A118312031323082C
:1000A000A701A7072208A601A6070A128A111C2782
:1000B0000A128A11831203134130A500EE30A40006
:1000C000A40B6028A50B6028640083120313FF3083
:1000D000A2070318A30AFF30A307A31F70287128E3
:0A00E00041282A280A128A1100287C
:100BAC00B40034088600081788174130B600EE30C0
:100BBC00B500B50BDF2DB60BDF2D640083120313CC
:100BCC008813080038300A128A11EC270A128A118D
:100BDC000C300A128A11EC270A128A1106300A12FA
:100BEC008A11EC270A128A1101300A128A11EC2799
:100BFC000A128A1180300A128A11EC270A128A1101
:100C0C0008003708360403190C2E0D2E3D2EB801A2
:100C1C000314B80D1C2E01300310B60DB70DFF3E9A
:100C2C00031D122E0130B9003908B807B71F1F2E4B
:100C3C00202E112E37083502031D262E36083402BD
:100C4C00031C292E2A2E302E3608B4023708031C1A
:100C5C00B503B50201300310B70CB60CFF3E031DF3
:100C6C00312E0130B802031D3C2E3D2E202E3E2E7F
:100C7C0008000030B9000030BA00370836040319F8
:100C8C00482E492E842EB8010314B80D582E01306D
:100C9C000310B60DB70DFF3E031D4E2E0130BB00E9
:100CAC003B08B807B71F5B2E5C2E4D2E013003108E
:100CBC00B90DBA0DFF3E031D5D2E37083502031D1D
:100CCC00692E36083402031C6C2E6D2E772E3608D6
:100CDC00B4023708031CB503B5020130B904003067
:100CEC00BA0401300310B70CB60CFF3E031D782E6E
:100CFC000130B802031D832E842E5C2E3A08B501F8
:100D0C00B5073908B401B4078B2E08000310003066
:100D1C0003180130B900B71F942E952E9D2EB609DD
:100D2C00B709B60A0319B70AB9010314B90DB51FEF
:100D3C00A02EA12EAA2EB409B509B40A0319B50A1E
:100D4C000130BC003C08B9060030BA000030BB00D2
:100D5C00370836040319B32EB42EEF2EB801031442
:100D6C00B80DC32E01300310B60DB70DFF3E031D99
:100D7C00B92E0130BC003C08B807B71FC62EC72ED1
:100D8C00B82E01300310BA0DBB0DFF3E031DC82E4B
:100D9C0037083502031DD42E36083402031CD72E17
:100DAC00D82EE22E3608B4023708031CB503B50260
:100DBC000130BA040030BB0401300310B70CB60C80
:100DCC00FF3E031DE32E0130B802031DEE2EEF2E65
:100DDC00C72EB908031DF32EF82EBA09BB09BA0A9F
:100DEC000319BB0A3B08B501B5073A08B401B407AF
:100DFC00FF2E0800FE00FE1F082F83137E1883179A
:100E0C00000808000408FE0007308A007E088207EC
:100E1C0000345234453456345F3443344F345534F3
:100E2C004E3454343D340034203400342708AB01A4
:100E3C00AB072608AA01AA070030AC000030AD00B1
:100E4C00442F0A30B6000030B7002B08B501B507A7
:100E5C002A08B401B4070A128A118C260A128A11C4
:100E6C00831203133508AB01AB073408AA01AA0798
:100E7C000130AC070318AD0A0030AD072B08803ADF
:100E8C00B20080303202031D4D2F01302A020318AC
:100E9C00502F512F272F2C08893EAE002D080318F8
:100EAC00013E003EAF002E08013EA8002F0803189B
:100EBC00013E003EA900C22F4130B300EE30B2001B
:100ECC00B20B662FB30B662F640083120313280832
:100EDC000A128A11EC270A128A11831203131A3090
:100EEC000A128A11D6250A128A110A3083120313A8
:100EFC00B6000030B7002708B501B5072608B401C5
:100F0C00B4070A128A1107260A128A1183120313D4
:100F1C003508B101B1073408B001B0072E080A1228
:100F2C008A11EC270A128A1183120313FF30AE07C1
:100F3C000318AF0AFF30AF073008303E0A128A118F
:100F4C00D6250A128A110A3083120313B600003018
:100F5C00B7002708B501B5072608B401B4070A1273
:100F6C008A113F260A128A11831203133508A7012E
:100F7C00A7073408A601A60727082604031DC72FB8
:100F8C00C82F622F080083120313A600DE2F260839
:100F9C000A128A1109270A128A110A128A11D625F5
:100FAC000A128A11013083120313A7002708A6071F
:100FBC008312031326080A128A1109270A128A11AE
:100FCC000038031DEA2FEB2FCD2F080083120313DB
:100FDC00B40034088600081388174130B600EE3090
:100FEC00B500B50BF72FB60BF72F64008312031364
:040FFC00881308004E
:02400E00723D01
:00000001FF
