:1000000083177C3084007E300A128A110D200A1278
:100010008A1183010A128A11152864008001840A5A
:1000200004060319003404060E280A128A111D273B
:100030000A128A1180300A128A1158270A128A116C
:1000400001300A128A119A270A128A111A280A12F2
:040050008A110028E9
:100E0000FE00FE1F082F83137E18831700080800BA
:100E10000408FE0007308A007E088207003442344E
:100E2000413455344D3441342034523441344E34FD
:100E30004A344934543448340034031083160313BD
:100E400000300318013086000310831203130030B2
:100E500003180130860003108316031300300318B3
:100E6000013088000310831203130030031801308F
:100E7000880038300A128A1158270A128A110C3059
:100E80000A128A1158270A128A1106300A128A1188
:100E900058270A128A1101300A128A1158270A1299
:100EA0008A1180300A128A1158270A128A11080002
:100EB000F0007008831203138600081388170030AF
:100EC000F1000030F200642F0130F1070318F20A3C
:100ED0000030F2077208803AF300F5307302031D08
:100EE000732F30307102031C762F772F642F8813F5
:100EF0000800F2007208831203138600081788178F
:100F00000030F3000030F400852F0130F3070318A0
:100F1000F40A0030F4077408803AF500F5307502E1
:100F2000031D942F30307302031C972F982F852FA9
:100F300088130800F000AB2F70080A128A110927E5
:100F40000A128A110A128A1179270A128A110130AB
:100F5000F1007108F00770080A128A1109270A12B5
:0E0F60008A110038031DB52FB62F9C2F0800F4
:02400E00723D01
:00000001FF
