:100000000A128A1103280310831603130030031801
:1000100001308600031083120313003003180130EF
:100020008600031083160313003003180130880084
:1000300003108312031300300318013088000A12E2
:100040008A1146270A128A1183120313081C2928D1
:100050002A28A12880300A128A1165270A128A11DB
:1000600001300A128A111D270A128A1100308312E8
:100070000313A0000030A1003D280130A0070318A1
:10008000A10A0030A1072108803AA800CE3028023A
:10009000031D4C2820302002031C4F2850283D28E7
:1000A0000030A2000030A30055280130A207031839
:1000B000A30A0030A3072308803AA800F5302802DD
:1000C000031D642830302202031C67286828552845
:1000D0001C300A128A1165270A128A110030831215
:1000E0000313A4000030A50075280130A4070318ED
:1000F000A50A0030A5072508803AA800F530280297
:10010000031D842830302402031C87288828752882
:100110000030A6000030A7008D280130A607031884
:10012000A70A0030A7072708803AA800CE30280287
:10013000031D9C2820302602031C9F28A0288D2800
:0801400036280A128A1100287A
:100E0000FE00FE1F082F83137E18831700080800BA
:100E10000408FE0007308A007E088207003442344E
:100E2000413455344D3441342034523441344E34FD
:100E30004A34493454344834003483120313A9002B
:100E40000030AA000030AB00392F29082A070A1207
:100E50008A1109270A128A110A128A1179270A129D
:100E60008A11831203130130AA070318AB0A00305A
:100E7000AB0729082A070A128A1109270A128A11C0
:100E80000038031D442F452F252F080038300A1243
:100E90008A1165270A128A110C300A128A116527F5
:100EA0000A128A1106300A128A1165270A128A115B
:100EB00001300A128A1165270A128A1180300A123B
:100EC0008A1165270A128A11080083120313A900E8
:100ED00029088600081388174130AB00EE30AA00BD
:100EE000AA0B702FAB0B702F6400831203138813AF
:100EF0000800AC002C088600081788174130AE00A7
:100F0000EE30AD00AD0B822FAE0B822F640083124A
:060F100003138813080022
:02400E00723D01
:00000001FF
