:100000000A128A1103280310831603130030031801
:1000100001308600031083120313003003180130EF
:100020008600031083160313003003180130880084
:1000300003108312031300300318013088000310EB
:100040008316031300300318013087000310831256
:10005000031300300318013087000A128A11C825E3
:100060000A128A1180300A128A11B4250A128A11E2
:1000700001300A128A11CE270A128A11E730831240
:100080000313A0000330A100871F472848288F28AA
:1000900001300A128A11B4250A128A110030831223
:1000A0000313A2000030A300812880300A128A11B5
:1000B000B4250A128A1110300A128A11CE270A12A8
:1000C0008A11831203132308A601A6072208A5019B
:1000D000A5070A128A1125270A128A11831203130F
:1000E00021082306031D762820082206031D7928EF
:1000F0007A287B288F280130A2070318A30A003032
:10010000A3072108803AA4002308803A2402031D93
:100110008B282208200203188E288F2855283E2875
:060120000A128A110028FA
:100B400083120313B20032088600881688170A3011
:100B5000B3000030B4000A128A11E7250A128A1184
:100B6000831203138813080083120313B2003208A0
:100B70008600881288170A30B3000030B4000A12C9
:100B80008A11E7250A128A118312031388130800B9
:100B900038300A128A11B4250A128A110C300A124E
:100BA0008A11B4250A128A1106300A128A11B42554
:100BB0000A128A1101300A128A11B4250A128A1106
:100BC00080300A128A11B4250A128A1108000030F6
:100BD000B5000030B600FC2D0730B8007D30B700FE
:100BE000B70BF02DB80BF02D831203130130B507AE
:100BF0000318B60A0030B60734083602031D022E69
:100C000033083502031C052E062EEC2D080035088E
:100C1000340403190C2E0D2E3D2EB6010314B60D0F
:100C20001C2E01300310B40DB50DFF3E031D122E16
:100C30000130B7003708B607B51F1F2E202E112E22
:100C400035083302031D262E34083202031C292ED8
:100C50002A2E302E3408B2023508031CB303B30227
:100C600001300310B50CB40CFF3E031D312E0130D2
:100C7000B602031D3C2E3D2E202E3E2E08000030D5
:100C8000B7000030B800350834040319482E492E47
:100C9000842EB6010314B60D582E01300310B40D86
:100CA000B50DFF3E031D4E2E0130B9003908B607C1
:100CB000B51F5B2E5C2E4D2E01300310B70DB80D05
:100CC000FF3E031D5D2E35083302031D692E3408D7
:100CD0003202031C6C2E6D2E772E3408B2023508BA
:100CE000031CB303B3020130B7040030B804013071
:100CF0000310B50CB40CFF3E031D782E0130B60274
:100D0000031D832E842E5C2E3808B301B3073708E9
:100D1000B201B2078B2E0800031000300318013017
:100D2000B700B51F942E952E9D2EB409B509B40AAF
:100D30000319B50AB7010314B70DB31FA02EA12ED6
:100D4000AA2EB209B309B20A0319B30A0130BA00D4
:100D50003A08B7060030B8000030B900350834044E
:100D60000319B32EB42EEF2EB6010314B60DC32E05
:100D700001300310B40DB50DFF3E031DB92E013037
:100D8000BA003A08B607B51FC62EC72EB82E0130D6
:100D90000310B80DB90DFF3E031DC82E35083302F0
:100DA000031DD42E34083202031CD72ED82EE22E77
:100DB0003408B2023508031CB303B3020130B8048F
:100DC0000030B90401300310B50CB40CFF3E031D14
:100DD000E32E0130B602031DEE2EEF2EC72EB7080C
:100DE000031DF32EF82EB809B909B80A0319B90A78
:100DF0003908B301B3073808B201B207FF2E080063
:100E0000FE00FE1F082F83137E18831700080800BA
:100E10000408FE0007308A007E0882070034503440
:100E20005234453453345334203454344F34203402
:100E300053345434413452345434003443344F34F2
:100E400055344E3454343D3400342608AA01AA07E0
:100E50002508A901A9070030AB000030AC002A0822
:100E60002904031D342F352F412F86300A128A1191
:100E7000B4250A128A1130300A128A11A0250A12EA
:100E80008A115F2F0A30B4000030B5002A08B30180
:100E9000B3072908B201B2070A128A118C260A1276
:100EA0008A11831203133308AA01AA073208A90181
:100EB000A9070130AB070318AC0A0030AC07831256
:100EC00003132A082904031D662F672F422F2B08BE
:100ED000853EA7002C080318013E003EA800003004
:100EE000AD000030AE00BF2F0A30B4000030B500B6
:100EF0002608B301B3072508B201B2070A128A1106
:100F000007260A128A11831203133308B001B007AF
:100F10003208AF01AF0727080A128A11B4250A1256
:100F20008A1183120313FF30A7070318A80AFF30A2
:100F3000A8072F08303E0A128A11A0250A128A112A
:100F40000A3083120313B4000030B5002608B30141
:100F5000B3072508B201B2070A128A113F260A1206
:100F60008A11831203133308A601A6073208A501CC
:100F7000A5070130AD070318AE0A0030AE072E08F2
:100F8000803AB1002C08803A3102031DC92F2B088A
:100F90002D02031CCC2FCD2F742F080083120313B6
:100FA000A500EC2F25080A128A1109270A128A11B6
:100FB0000A128A11A0250A128A1101308312031322
:100FC000A6002608A5076430B3000030B4000A125A
:100FD0008A11E7250A128A118312031325080A12BF
:100FE0008A1109270A128A110038031DF82FF92FD8
:040FF000D22F0800F4
:02400E00723D01
:00000001FF
