:1000000083177C3084007E300A128A110D200A1278
:100010008A1183010A128A11152864008001840A5A
:1000200004060319003404060E280A128A111D273B
:100030000A128A1180300A128A1181270A128A1143
:1000400001300A128A1158270A128A1100308312CD
:100050000313A0000030A1002D280130A0070318D1
:10006000A10A0030A1072108803AA400F53024023B
:10007000031D3C2830302002031C3F2840282D2837
:100080001C300A128A1181270A128A110030831249
:100090000313A2000030A3004D280130A20703186B
:1000A000A30A0030A3072308803AA400F5302402F5
:1000B000031D5C2830302202031C5F2860284D2875
:0800C00026280A128A1100280B
:100E0000FE00FE1F082F83137E18831700080800BA
:100E10000408FE0007308A007E088207003442344E
:100E2000413455344D3441342034523441344E34FD
:100E30004A344934543448340034031083160313BD
:100E400000300318013086000310831203130030B2
:100E500003180130860003108316031300300318B3
:100E6000013088000310831203130030031801308F
:100E7000880038300A128A1181270A128A110C3030
:100E80000A128A1181270A128A1106300A128A115F
:100E900081270A128A1101300A128A1181270A1247
:100EA0008A1180300A128A1181270A128A110800D9
:100EB00083120313A5000030A6000030A700742F92
:100EC000250826070A128A1109270A128A110A120E
:100ED0008A1194270A128A11831203130130A6077C
:100EE0000318A70A0030A707250826070A128A1147
:100EF00009270A128A110038031D7F2F802F602FC7
:100F0000080083120313A50025088600081388171C
:100F10000730A7007D30A600A60B8C2FA70B8C2FC7
:100F20008312031388130800A800280886000817F6
:100F300088170730AA007D30A900A90B9D2FAA0BA6
:0A0F40009D2F83120313881308008D
:02400E00723D01
:00000001FF
