:100000000A128A1103280310831603130030031801
:100010000130860003100030031801308700031000
:1000200083120313003003180130860003100030E0
:10003000031801308700071E1E281F283A280616BD
:10004000F430F0000130F1000A128A11E2270A129E
:100050008A1183120313071D2E282F283928D03028
:10006000F0000730F1000A128A11E2270A128A1101
:0A0070003A281F280A128A110028FE
:100FC4000030F2000030F300F52F0730F5007D30DB
:100FD400F400F40BEB2FF50BEB2F0130F2070318A1
:100FE400F30A0030F30771087302031DFB2F700826
:0C0FF4007202031CFE2FFF2FE72F0800E5
:02400E00723D01
:00000001FF
