:1000000083177C3084007E300A128A110D200A1278
:100010008A1183010A128A11152864008001840A5A
:1000200004060319003404060E2803108316031374
:1000300000300318013086000310831203130030D0
:1000400003180130860003108316031300300318D1
:1000500001308800031083120313003003180130AD
:1000600088000A128A1186270A128A118312031342
:10007000081C3B283C28BF2880300A128A114627DA
:100080000A128A1109300A128A111D270A128A11CE
:10009000C0300A128A1146270A128A1101300A1248
:1000A0008A111D270A128A11003083120313A0003F
:1000B0000030A1005B280130A0070318A10A00301E
:1000C000A1072108803AA800F5302802031D6A28FC
:1000D00030302002031C6D286E285B280030A200FF
:1000E0000030A30073280130A2070318A30A0030D0
:1000F000A3072308803AA800CE302802031D8228D7
:1001000020302202031C8528862873281C300A12FE
:100110008A1146270A128A11003083120313A400A1
:100120000030A50093280130A4070318A50A003069
:10013000A5072508803AA800F5302802031DA2284B
:1001400030302402031CA528A62893280030A600DE
:100150000030A700AB280130A6070318A70A00301B
:10016000A7072708803AA800CE302802031DBA2826
:1001700020302602031CBD28BE28AB285428362870
:060180000A128A1100289A
:100E0000FE00FE1F082F83137E18831700080800BA
:100E10000408FE0007308A007E088207003452343E
:100E200041344E344A344934543448340034423422
:100E3000413455344D344134003483120313A90036
:100E40000030AA000030AB00392F29082A070A1207
:100E50008A1109270A128A110A128A1167270A12AF
:100E60008A11831203130130AA070318AB0A00305A
:100E7000AB0729082A070A128A1109270A128A11C0
:100E80000038031D442F452F252F0800831203131C
:100E9000A90029088600081388170030AA0000302E
:100EA000AB00522F0130AA070318AB0A0030AB0782
:100EB0002B08803AAC00F5302C02031D612F303036
:100EC0002A02031C642F652F522F88130800AC00E0
:100ED0002C088600081788170030AD000030AE00DF
:100EE000712F0130AD070318AE0A0030AE072E088F
:100EF000803AAF00F5302F02031D802F30302D02D5
:100F0000031C832F842F712F8813080038300A1296
:100F10008A1146270A128A110C300A128A114627B2
:100F20000A128A1106300A128A1146270A128A11F9
:100F300001300A128A1146270A128A1180300A12D9
:0A0F40008A1146270A128A110800E0
:02400E00723D01
:00000001FF
