:100000000A128A1103280310831603130030031801
:100010000130860003100030031801308700031000
:10002000831203130030031801308700071C1928BE
:100030001A288C280030F0000030F1001F2803300F
:100040008312031386000A128A11DE270A128A110C
:100050009F308312031386000A128A11DE270A12C8
:100060008A1125308312031386000A128A11DE27B3
:100070000A128A110D308312031386000A128A11A4
:10008000DE270A128A1199308312031386000A129E
:100090008A11DE270A128A1149308312031386005F
:1000A0000A128A11DE270A128A11413083120313C1
:1000B00086000A128A11DE270A128A111F30831263
:1000C000031386000A128A11DE270A128A110130F0
:1000D0008312031386000A128A11DE270A128A117C
:1000E00019308312031386000A128A11DE270A12BE
:1000F0008A110130F0070318F10A0030F107710886
:10010000803AF20080307202031D882809307002A4
:0E011000031C8B288C281F280A128A11002835
:100FBC000030F3000030F400E32F4130F600EE3047
:100FCC00F500F50BE72FF60BE72F64000130F30764
:100FDC000318F40A0030F4077408803AF5008030E6
:100FEC007502031DFB2F32307302031CFE2FFF2FE3
:040FFC00E32F0800D7
:02400E00723D01
:00000001FF
