:100000000A128A1103280310831603130030031801
:100010000130860080308312031386000A128A1191
:10002000DE270A128A110030F0000030F100182893
:10003000831203130608F2000310720C86000A12E2
:100040008A11DE270A128A110130F0070318F10A1B
:100050000030F1077108803AF20080307202031D0F
:10006000332808307002031C3628372818280A1253
:040070008A110028C9
:100FBC000030F3000030F400E32F4130F600EE3047
:100FCC00F500F50BE72FF60BE72F64000130F30764
:100FDC000318F40A0030F4077408803AF5008030E6
:100FEC007502031DFB2F32307302031CFE2FFF2FE3
:040FFC00E32F0800D7
:02400E00723D01
:00000001FF
