:100000000A128A1103280310831603130030031801
:1000100001308600031083120313003003180130EF
:100020008600031083160313003003180130880084
:1000300003108312031300300318013088000310EB
:100040008316031300300318013087000310831256
:10005000031300300318013087000A128A11D425D7
:100060000A128A11E73083120313A0000330A100A3
:1000700001300A128A11C0250A128A110030831237
:100080000313A2000030A300712880300A128A11E5
:10009000C0250A128A1101300A128A1113260A1287
:1000A0008A11831203132308A601A6072208A501BB
:1000B000A5070A128A1116270A128A11831203133E
:1000C00021082306031D662820082206031D69282F
:1000D0006A286B287F280130A2070318A30A003082
:1000E000A3072108803AA4002308803A2402031DB4
:1000F0007B282208200203187E287F2845283228E2
:060100000A128A1100281A
:100B580083120313B20032088600081788170A3078
:100B6800B3000030B4000A128A11F3250A128A1160
:100B7800831203138813080083120313B200320888
:100B88008600081388170A30B3000030B4000A1230
:100B98008A11F3250A128A11831203138813080095
:100BA80038300A128A11C0250A128A110C300A122A
:100BB8008A11C0250A128A1106300A128A11C02524
:100BC8000A128A1101300A128A11C0250A128A11E2
:100BD80080300A128A11C0250A128A1108000030D2
:100BE800B5000030B600082E0730B8007D30B700D9
:100BF800B70BFC2DB80BFC2D831203130130B5077E
:100C08000318B60A0030B60734083602031D0E2E44
:100C180033083502031C112E122EF82D08008312FA
:100C28000313A500312E25080A128A1109270A1272
:100C38008A110A128A11AC250A128A11013083120C
:100C48000313A6002608A5076430B3000030B400DB
:100C58000A128A11F3250A128A118312031325082E
:100C68000A128A1109270A128A110038031D3D2E1B
:100C78003E2E172E08000030B7000030B8003508A7
:100C880034040319482E492E842EB6010314B60DD8
:100C9800582E01300310B40DB50DFF3E031D4E2E26
:100CA8000130B9003908B607B51F5B2E5C2E4D2EF2
:100CB80001300310B70DB80DFF3E031D5D2E35083A
:100CC8003302031D692E34083202031C6C2E6D2E6C
:100CD800772E3408B2023508031CB303B30201307F
:100CE800B7040030B80401300310B50CB40CFF3E53
:100CF800031D782E0130B602031D832E842E5C2E30
:100D08003808B301B3073708B201B2078B2E0800C1
:100D18000310003003180130B600B51F942E952E2D
:100D28009D2EB409B509B40A0319B50AB60103140E
:100D3800B60DB31FA02EA12EAA2EB209B309B20A6E
:100D48000319B30A0130BA003A08B6060030B800F1
:100D58000030B900350834040319B32EB42EEF2E31
:100D6800B7010314B70DC32E01300310B40DB50D30
:100D7800FF3E031DB92E0130BA003A08B707B51F68
:100D8800C62EC72EB82E01300310B80DB90DFF3E80
:100D9800031DC82E35083302031DD42E3408320231
:100DA800031CD72ED82EE22E3408B2023508031CB5
:100DB800B303B3020130B8040030B90401300310A2
:100DC800B50CB40CFF3E031DE32E0130B702031D22
:100DD800EE2EEF2EC72EB608031DF32EF82EB809F7
:100DE800B909B80A0319B90A3908B301B3073808A9
:100DF800B201B207FF2E0800FE00FE1F082F831362
:100E08007E188317000808000408FE0007308A00CF
:100E18007E088207003443344F3455344E345434FA
:100E28003D3400342608AA01AA072508A901A90704
:100E38000030AB000030AC002A082904031D252F20
:100E4800262F322F86300A128A11C0250A128A11DB
:100E580030300A128A11AC250A128A11502F0A3032
:100E6800B4000030B5002A08B301B3072908B2015D
:100E7800B2070A128A118C260A128A1183120313E6
:100E88003308AA01AA073208A901A9070130AB074C
:100E98000318AC0A0030AC07831203132A0829048C
:100EA800031D572F582F332F2B08853EA7002C08DA
:100EB8000318013E003EA8000030AD000030AE002F
:100EC800B02F0A30B4000030B5002608B301B307CC
:100ED8002508B201B2070A128A11BF270A128A111D
:100EE800831203133308B001B0073208AF01AF070C
:100EF80027080A128A11C0250A128A1183120313BD
:100F0800FF30A7070318A80AFF30A8072F08303EAC
:100F18000A128A11AC250A128A110A3083120313A5
:100F2800B4000030B5002608B301B3072508B201A4
:100F3800B2070A128A113F260A128A118312031372
:100F48003308A601A6073208A501A5070130AD0799
:100F58000318AE0A0030AE072E08803AB1002C08FC
:100F6800803A3102031DBA2F2B082D02031CBD2F16
:100F7800BE2F652F0800350834040319C42FC52F68
:100F8800F52FB6010314B60DD42F01300310B40D9C
:100F9800B50DFF3E031DCA2F0130B7003708B6074D
:100FA800B51FD72FD82FC92F35083302031DDE2FC1
:100FB80034083202031CE12FE22FE82F3408B20272
:100FC8003508031CB303B30201300310B50CB40C8D
:100FD800FF3E031DE92F0130B602031DF42FF52F44
:060FE800D82FF62F0800CF
:02400E00723D01
:00000001FF
