:100000000A128A1103280310831603130030031801
:1000100001308600031000300318013087000130E2
:100020008312031386000310003003180130870089
:1000300083120313071D1D281E2829280608F00017
:100040000310700C86000A128A11DE270A128A1128
:100050003628071C2C282D2836280608F0007007A3
:1000600086000A128A11DE270A128A1118280A123B
:040070008A110028C9
:100FBC000030F1000030F200E32F4130F400EE304D
:100FCC00F300F30BE72FF40BE72F64000130F1076C
:100FDC000318F20A0030F2077208803AF3008030EE
:100FEC007302031DFB2F32307102031CFE2FFF2FE7
:040FFC00E32F0800D7
:02400E00723D01
:00000001FF
