:100000000A128A1103280310831603130030031801
:1000100001308600031083120313003003180130EF
:100020008600031083160313003003180130880084
:1000300003108312031300300318013088000030CE
:10004000F0000030F1000310831203130030031896
:1000500001308800081C2D282E2839280130F0078F
:100060000318F10A0030F1070A128A11DE270A127A
:100070008A1183120313881C3E283F284A28FF3028
:10008000F0070318F10AFF30F1070A128A11DE2780
:100090000A128A1183120313081D4F285028792849
:1000A0000030F2000030F3006B288312031388172E
:1000B0000A128A11DE270A128A1183120313881387
:1000C0000A128A11DE270A128A110130F207031878
:1000D000F30A0030F3077308803AF4007108803A9D
:1000E0007402031D752870087202031C7828792891
:1000F00055287108803AF40080307402031D82286C
:100100000A307002031C852886288A280930F000EE
:100110000030F100F11F8D288E2892280030F00069
:100120000030F100C5280330831203138600EB284A
:100130009F30831203138600EB28253083120313AC
:100140008600EB280D30831203138600EB289930CC
:10015000831203138600EB284930831203138600B1
:10016000EB284130831203138600EB281F308312E3
:1001700003138600EB280130831203138600EB285B
:100180001930831203138600EB28E6287008003A22
:1001900003199328013A03199828033A03199D2853
:1001A000013A0319A228073A0319A728013A0319AB
:1001B000AC28033A0319B128013A0319B6280F3ABB
:1001C0000319BB28013A0319C028EB287108003A2B
:0E01D0000319C628EB2823280A128A110028DA
:100FBC000030F5000030F600E32F4130F800EE3041
:100FCC00F700F70BE72FF80BE72F64000130F5075C
:100FDC000318F60A0030F6077608803AF7008030DE
:100FEC007702031DFB2F19307502031CFE2FFF2FF8
:040FFC00E32F0800D7
:02400E00723D01
:00000001FF
