:100000000A128A1103280310831603130030031801
:1000100001308600031083120313003003180130EF
:100020008600031083160313003003180130870085
:1000300003108312031300300318013087000030CF
:10004000F0000030F10083120313071C2828292830
:1000500034280130F0070318F10A0030F1070A12C2
:100060008A11DE270A128A1183120313871C39288A
:100070003A284528FF30F0070318F10AFF30F1074E
:100080000A128A11DE270A128A117108803AF200D8
:1000900080307202031D4E280A307002031C512862
:1000A000522856280930F0000030F100F11F59287D
:1000B0005A285E280030F0000030F100912803300B
:1000C000831203138600B7289F3083120313860020
:1000D000B7282530831203138600B7280D3083120A
:1000E00003138600B7289930831203138600B728BC
:1000F0004930831203138600B7284130831203135B
:100100008600B7281F30831203138600B7280130FA
:10011000831203138600B728193083120313860055
:10012000B728B2287008003A03195F28013A03196A
:100130006428033A03196928013A03196E28073A1B
:1001400003197328013A03197828033A03197D2803
:10015000013A031982280F3A03198728013A031933
:100160008C28B7287108003A03199228B728232849
:060170000A128A110028AA
:100FBC000030F3000030F400E32F4130F600EE3047
:100FCC00F500F50BE72FF60BE72F64000130F30764
:100FDC000318F40A0030F4077408803AF5008030E6
:100FEC007502031DFB2F19307302031CFE2FFF2FFC
:040FFC00E32F0800D7
:02400E00723D01
:00000001FF
